:400000000010002011000000F5030000F503000008B500F009FAC04638B5164C23688022D20213432360182000F0BCFA2268124B13402360114A124B1A602022114B1A60CB
:40004000103A114B1A6080221206104B1A60002525600F4A0F4B1A600F4A104B1A6009200F4900F045FA092000F02CFA0D4B1D6038BDC04600010B40FFFFFBFF0600008043
:4000800004010B40080202400C02024008010B4002000080000002401000008040000240B50700000C020B4010B572B6002410E01E4863001A195200821891881B195B0084
:4000C0001A5AC31858880004104300F0F5F90134E4B2012CECD9164A164B1A609922164B1A6099221204154B1A60154B1978022002220A431A70134C22783C218A432839D1
:400100000A432270197816220A431A7003220E4B1A600E4A0E4B1A600E4B186031220E4B1A600E4B1860FFF777FF10BD441B0000EEEE00000C0001401000014030500F4074
:4001400000700F4001700F4000030440A40D00000803044000040440080404401804044010B5064C2378002B07D1054B002B02D0044800E000BF0123237010BD48010020E7
:4001800000000000381B000008B5084B002B03D00748084900E000BF07480368002B00D108BD064B002BFBD09847F9E700000000381B00004C010020C80000200000000076
:4001C00000B593B062B600F023F8752000F046F80CA802A900F028F802A800F09BF802A800F0BAF802A800F0DFF8099B01930DA806491A1C01F098F80DA800F0CFFD02A8BA
:4002000000F0EAF81E2000F0ABF9E5E73C1B000008B5022000F022FD022000F00DFD00F04FFD00F02FFB08BD10B50C1C00F03CF8201C00F04FF810BD00B583B001AB187065
:4002400059706920191C0222002300F001FC00F08FFB8307FBD5FF2003B000BD10B582B001A9087069200122022300F0F1FB00F07FFB8307FBD5692069460122012300F067
:400280005DFC00F075FBC307FBD500F071FB830502D46B461C7801E00124644200F080FB201C02B010BDC04610B5041C10230370083B43708370073BC3706B200121FFF788
:4002C000BBFF61781920FFF7B7FF21781C20FFF7B3FF10BD10B5002314E0590041180022CA80191D490041184A80CA80191C08314C00041962809C1DA400225089000A50EB
:400300000133DBB2012BE8D9002303704370438010BDC04630B583B0051C3B20FFF79EFFC4B23C20FFF79AFF64B2240240B200196C88001B80B201AB5880C73080B2C72389
:400340005B00984202D8002201AB5A8001AB5B882B8103B030BDC04630B50389002B09D103780133DBB20370052B1CD900230382C38118E000220270C189C2881BB214B2FC
:400380001B1BDC0FE3185B108A18D3180382448A81890BB20A25425F9B18DA0FD3185B106118CB18838230BD10B50E22835E8269D4181022815ECA1AD10F8A185210A218BF
:4003C000C2611421425E016A8918D31ADA0FD3185B10CB18436210BD0389C380038AC381C369836183894381838A4382436A03627047C046FEE7C04608B5031C084A1068C6
:40040000C318084A9A1A802A02DC054A136005E000F056FF0C2303600120404208BDC046CC000020C001002070B50F4E0F4D13E029686B68AC68002202E001C901C3043289
:40044000A242FAD1E868002202E0002102C304328242FAD11035013E002EE9D100F036FFFFF7AEFEFEE7C04601000000DC1B000008B500230AE0032B03D89A000A49505850
:4004800000E00A4899000A4A885001332F2BF2D9FFF70AFE0022074B1A608022D205116801230B43136008BD00000000F503000000000020C000002008B50A1C002100F078
:4004C0002BFF08BD1F2318401E3B8340181C014B1860704700E100E01F2318401E3B8340181C014B1860704780E100E001BE704738B5041C0D1C1F2802D90020FFF7F6FF68
:40050000A400034B9C4664442068256038BDC0464000002070B5041C0E1E032E02D90020FFF7E4FF1F2C02D90020FFF7DFFF03252540ED00063500F049FCA408A400074BBB
:400540009C46644423680322AA409343AE40351C1D43256000F03EFC70BDC04600E400E010B5041C06E0084B186800F025FC074B9C46644480231B029C42F4D8024B58683A
:40058000604300F019FC10BDD00000200080FFFF08B5034B1B7A584300F00EFC08BDC046D0000020F0B557464E46C0B483B0041C00F00CFC0190E71E2D2F74D83F4B1B7878
:4005C000DBB2A34208D33E4B1B78DBB29A463D4B1B78DBB2994631E03B4B1B78DBB2A34208D33A4B1B78DBB29A46394B1B78DBB2994623E0374B1B78DBB2A34208D3364B39
:400600001B78DBB29A46354B1B78DBB2994615E0334B1B78DBB2A34208D3324B1B78DBB29A46314B1B78DBB2994607E02F4B1B78DBB29A462E4B1B78DBB299462D4BDE5D64
:400640002F2E09D92A2C07D919222B4B1A60052000F0B2FB192503E0274B1D683F231D40AE4206D2234BDA5D234B1A60052000F0A3FB1F4B9C4664442378DBB21F4A136041
:400680001F4B52461A601F4B4A461A600520FFF77FFFAE420AD9174BDA5D174B1A60052000F08AFB02E00020FFF720FF019800F091FB03B00CBC91469A46F0BDC0F1FF0F05
:4006C000C1F1FF0FC2F1FF0FC3F1FF0FC4F1FF0FC5F1FF0FC6F1FF0FC7F1FF0FC8F1FF0FC9F1FF0FCAF1FF0FCBF1FF0FCCF1FF0FCDF1FF0F501B00002CFF0B4028FF0B4099
:400700001CFF0B4020FF0B40034B1868C0231B02184000D00120704700010B4008B500F055FB044A1368C02109020B43136000F051FB08BD00010B4010B500F047FB0849C7
:400740000A68084B1A408024E40122430A600A6813408022120213430B6000F03BFB10BD00010B40FF3FFFFF70B5061C00F02EFB041CFFF7C9FF002803D0FFF7DDFF01251A
:4007800000E000250848331C0340084A106808490840184310601368012D01D1FFF7BEFF201C00F017FB70BD0404040010020B40FBFBFBFF10B5244B1B685B0715D5234BC1
:4007C0001B685B070ED5224BD969042001401F4C22688A432260DA698243DA611B69002B00D098470420FFF7BFFF174B1B685B0518D5164B1B685B0510D5154BD9698022C1
:40080000D2001140114802688A430260D969114A0A40DA615B69002B00D098478020C000FFF7A2FF084B1B685B030CD5074B1B685B0304D5064B9B69002B00D098478020FC
:40084000C002FFF791FF10BD10020B40E000002064010020FFFBFFFF08B50B20FFF732FE08BDC04608B500F01DF808BD08B5044A1368802109060B431360FFF7EDFF08BD8B
:400880000000074008B5064B1B78002B04D1FFF7E9FF0122024B1A70FFF7E8FF08BDC0468401002010B51D4A11680C230B43136000241B4B1C601B4A1B4B1A601B4B1C4A7F
:4008C00013601C4A14601C4A14601C4A13601C4B1C600B20FFF700FE0B200321FFF71AFE0B201849FFF704FE174B1C60174B1C60174B1C601422FF32164B1A60164B1C605C
:40090000164B1C60043AFF3A154B1A70154B1C80154B1C60154B1C6010BDC0467000074000000740C70800806000074007010080000307400403074010030740000207403B
:4009400004020740E10D0000C80E0740880E0740480F0740080F0740C80F0740880F074098010020A6010020AC010020A001002010B50B20FFF7B0FD074B1B889BB21C1C2F
:40098000064A1278920601D504241C430B20FFF799FD201C10BDC046A60100209801002010B50B20FFF798FD044B1C88A4B200221A800B20FFF786FD201C10BDA60100202E
:4009C00010B51F4B1C6800F041F90028FBD0002000F04EF91B4A13680F218B4313601A4A13685B005B081360A3060FD5002000F03FF90320FFF7CCFD012000F039F900F085
:400A000043F90028FBD00320FFF7C2FD002000F02FF90320FFF7BCFD01220C4B1A600A4A1368802109060B43136006490B680F229343013A13430B60012000F019F910BDBC
:400A4000640007400C0001400000074068000740F0B583B001900C1C171C1D1C002919D0284B1B78102B0AD10B20FFF735FD264B1B68DB0701D508260FE000260DE0214BC2
:400A80001B78602B08D1214A138808218B431380002602E0042600E00426002E2BD12822184B1A7000231A4A13601A4A13601A4B1F601A4B1C60EAB2194B1A70019B5C00FA
:400AC000FF231C40114A138802218B431380154A154B1A604023154A1360154A1360EB0704D5FFF76DFF134B1C6004E0114B1C600222114B1A600B20FFF7E4FC301C03B001
:400B0000F0BDC0469801002064000740A60100209C010020A0010020A8010020B0010020A401002017030000000F0740800F0740880F07404002074068000740F0B583B0C6
:400B400001900C1C171C1D1C002919D02D4B1B78102B0AD10B20FFF7BFFC2B4B1B68DB0701D508260FE000260DE0264B1B78602B08D1264A138808218B431380002602E05B
:400B8000042600E00426002E35D129221D4B1A7000221F4B1A601F4A17601F4B1C60EBB21E490B70019B5C00FF231C400120044316490B8883430B8019491A4B1960136869
:400BC000072B03D80422184B1A6008E0174A1368802149000B4313600822134B1A60EB0704D5FFF7EDFE124B1C6004E0104B1C600222104B1A600B20FFF764FC301C03B0BB
:400C0000F0BDC0469801002064000740A6010020AC010020B8010020B4010020A401002017030000000F0740C80F0740600007404002074068000740034A136838218B433A
:400C4000C00018431060704708030440024B18688007C00F7047C04604030440034A136807218B43184310607047C04608030440031C04490868FE22024001201840104319
:400C80000860704700030440024B1868012318407047C0460403044008B500F06DF808BD08B500F01DF808BD08B5044A1368802109060B431360FFF7EFFF08BD0000064039
:400CC00008B5064B1B78002B04D1FFF7E9FF0122024B1A70FFF7E8FF08BDC0468C01002010B5134A134B1A600023134A13600121124A1160124A1348026007241248046048
:400D0000124803601248016012490A60124A1360124A1360124A1360124A1360124A1360124A1360124A13601268124B1A8010BD0B00000200000640400006404800064028
:400D400007000080000306400403064010030640440006400002064004020640880E0640C80E0640480F0640080F0640C80F0640880F06408E01002005490B68F02293439B
:400D8000603A13430B60034B1A88034B1A607047100001408E010020880F064038B5051C002402E000F0ECF90134285D0028F9D138BDC046000000000230800804D0C04668
:400DC0000138FDD1C046C046C0467047EFF3108072B6704780F310887047C046C046C04610B5C04B1B68002B00D09847BE4B1B68DB0702D50022BD4B1A60BD4B1B789B06AC
:400E000028D5BC4B1B68DB0507D5BB4A1188C0239B000B431380012300E00023B54A1268D20706D5B44A118890239B000B4313800123002B0FD0AE4A1278D20701D50122D6
:400E400000E00222AC49088802430A800021A84A117000E00023A64A1278920600D414E1A44A1268D20611D51022A44B1A60A04B1B78DB0701D5012300E002239E4A118807
:400E80000B43138010229A4B1A7029E1984A1278120720D5974A126892070AD50222974B1A60954A118888239B000B431380012311E08F4A1278D20703D525218C4A117074
:400EC00009E024218A4A11708D4A1268002A02D014398C4A1160864A1278520700D4ABE0834A1278D20749D5874A1268120727D5864A1268864909680F240C408549096886
:400F00006418141B082C09D8002C16D1824A1168824B0B401360012308340EE008240CE07C4A11687E48006841187E480068C0B20870116801311160013C002CF0D119E08B
:400F4000714A1268520715D5724A116874480068411874480068C0B2087011680131116011686A4A1268914203D204216E4A116000E001236D496E4A11605DE05D4A12683F
:400F8000920726D502225D4B1A606A4A13680F211940136880221202134000D00123CB18654A1168CB1A13601268644B1A60524A118884239B000B431380614B1A688021FA
:400FC00049020A431A6019685E4A0A401A60012332E05D4A1268D20612D424E0564A1168474A1268914211D2534A11685748006841180978C9B25648016011680131116072
:401000004C4A12680F210A40082AE7D14A4A11683B4A1268914202D140213A4A11604D494D4A116008E0484A1268520604D5424B1A68424B1A600123002B51D0364A1168F2
:40104000364B0B4013600023444A13602D4A1360434B1B789B070ED5254B1B78DB0701D5092300E00A23244A11880B43138060221F4B1A7034E03B4B1B689B0601D518225D
:4010800000E01022284B1A602AE0194B1B78DB0626D4354A13685B005B0813601021144B19701D4B18683149014019601868304901401960002329490B6012490B601B4918
:4010C000254B196023491A4B19602A492A4B19602A490A4B19601368802109060B43136010BDC046880100208C0E0740880E0740980100200C0F0740A6010020000F0740BD
:40110000A8010020880F0740CC0F0740B801002008030740AC01002060000740FFFEFFFFB40100204003074068000740ED0F0000C00F0740080207409C010020A00100205D
:4011400004020740FFFFFEFF8C0F0740B001002040020740F3070000800F0740C80F0740A40100206400074000000740FF5FFFFFFFFCFFFFFF0F0000400F07401703000033
:40118000044B1B680F221340082BF9D0024B18607047C0460802064040020640002243088B4274D303098B425FD3030A8B4244D3030B8B4228D3030C8B420DD3FF22090248
:4011C00012BA030C8B4202D31212090265D0030B8B4219D300E0090AC30B8B4201D3CB03C01A5241830B8B4201D38B03C01A5241430B8B4201D34B03C01A5241030B8B42FB
:4012000001D30B03C01A5241C30A8B4201D3CB02C01A5241830A8B4201D38B02C01A5241430A8B4201D34B02C01A5241030A8B4201D30B02C01A5241CDD2C3098B4201D3B3
:40124000CB01C01A524183098B4201D38B01C01A524143098B4201D34B01C01A524103098B4201D30B01C01A5241C3088B4201D3CB00C01A524183088B4201D38B00C01A0E
:40128000524143088B4201D34B00C01A5241411A00D20146524110467047FFE701B5002000F00CF802BDC0460029F7D003B5FFF775FF0EBC4243891A1847C0467047C04648
:4012C000014B18687047C046440100200E4B70B500251E1C0D4CE41AA410A54204D0AB00F35898470135F8E700F066FC084B00251E1C084CE41AA410A54204D0AB00F358B8
:4013000098470135F8E770BDC41B0000C41B0000C41B0000CC1B0000031C8218934202D019700133FAE770470EB410B59DB002A9029008610B4882248860486101204042AC
:401340001FABC881084804CBA400006801938C8100F06CF80023029A13701DB010BC08BC03B01847FFFFFF7F44010020F0B58E6885B0071C0C1C03920193B34245D39023A4
:401380008A89DB001A423DD003250969236801985B1A029363695D43EB0F5D19029B6D1001331B189D4200D21D1C381C53050FD5291C00F025FB061E13D0029A216900F0C5
:4013C000BCFAA289184B134080221343A38111E02A1C00F06DFB061E0CD1381C216900F0C9FA0C23402201203B60A38940421343A38117E0029B2661F61826606561019E90
:40140000ED1AA560019BB34200D2019E321C2068039900F09BFA0020A3689B1BA36023689E19266005B0F0BD7FFBFFFFF0B59FB0029005938B890E1C171C1B0610D50B6918
:40144000002B0DD1402100F0DBFA30603061002804D10C23029A01381360D0E040237361002306AD6B6120336B761033AB763C1C2378002B03D1E31B049312D003E0252BEB
:40148000F9D00134F4E7049B0298311C3A1CFFF76DFF431C00D1ACE06A69049B944663446B612378002B00D1A3E00122002352426A6002A95432521801342B60EB60AB602B
:4014C0001370AB654F4F2178381C052200F02AFA002808D0C01B01278740381C2B68013418432860EEE72B68DA0604D55322202102A8121811701A0704D553222B2102A839
:401500001218117022782A2A01D0099B0EE0059A111D12680591002A01DB099204E05242EA60022213432B60013409E02278303A092A04D80A214B4301349B18F6E709931F
:4015400023782E2B18D163782A2B09D1059B02341A1D1B680592002B0DDA01235B420AE0002301342278303A092A04D80A214B4301349B18F6E70793234F2178381C032299
:4015800000F0D0F9002807D0C01B40278740381C2B6801341843286021781C480622671C297600F0BFF9002812D0194B002B06D10722059B073393430833059314E005ABBC
:4015C00000930298291C321C124B00E000BF07E005AB00930298291C321C0E4B00F08AF80390039B013304D06B69039A9B186B613DE7B3890B985B0601D5012040421FB038
:40160000F0BDC046821B0000881B00008C1B0000000000006D130000F7B5171C01930A698B6800900C1C934200DA131C221C3B6043321278002A01D001333B6023689B0653
:4016400002D53B6802333B60062523681D401ED0231C43331B785A1E9341226892061CD53020E1184031C870211C5A1C45310978A21840320233D1700FE0221C0123009851
:4016800001991932089EB047431C0ED00135E3683A689B1A9D42F0DBDAE7221C009801994332089DA847431C02D10120404220E006232068E1683A6803400025042B03D1D3
:4016C0008D1AEB43DB171D40A3682269934201DD9B1AED180027AF420ADA221C0123009801991A32089EB047431CDED00137F2E70020FEBDF0B58BB006920A1C43320793A4
:40170000059004920A7E0C1C109B6E2A00D1A8E011D8632A22D009D8002A00D1B2E0582A00D0C2E045310A707C4A4FE0642A1DD0692A1BD0B9E0732A00D1A7E009D86F2A82
:4017400029D0702A00D0B0E0202209680A43226037E0752A1FD0782A33D0A6E00E1C1A684236111D196013683370A1E021681A68080606D4490604D5111D19600023D55EA2
:4017800002E0111D19601568002D3BDA2D23049A6D42137036E021681A68080606D4490604D51568111D1960ADB202E0111D196015685A4B227E03930A276F2A1DD1082745
:4017C0001BE0221C782145321170554A19680392081D226818600D68100602D4500600D5ADB2D30702D520231A4322601027002D03D1202322689A432260231C002243334A
:401800001A7002E00A27454B03936368A360002B03DB0422216891432160002D02D1049E002B0ED0049E281C391CFFF73DFD039B013E5B5C281C3370391CFFF7AFFC051E60
:40184000F1D1082F09D12368DB0706D563682269934202DC3023013E3370049B9B1B23612BE009681A68080607D4490605D5111D19601368A28A1A8004E0111D1960136838
:4018800062691A600023049E236116E01A68111D196016680021301C626800F043F8002801D0801B6060636803E0261C42363270012323610023049A1370079B059800937F
:4018C000211C069B09AAFFF7A7FE431C02D10120404221E0236905980699321C079DA847431CF4D023689B0705D4099BE068984212DA181C10E00025E368099A9B1A9D4297
:40190000F3DA221C0123059806991932079EB047431CDCD00135EFE70BB0F0BD931B0000A41B0000C9B28218904204D003788B4202D00130F8E700207047002310B59342F0
:4019400003D0CC5CC4540133F9E710BD10B5814208D28B18984205D29B1A013A09D3995C8154FAE70023934203D0CC5CC4540133F9E710BD30B500293ED004390B68002B63
:4019800000DAC9181D4A1368141C002B02D14B60116031E099420DD208680A189A4203D11368C3180B6053684B60216024E08A4203D8131C5A68002AF9D11D685C198C4233
:4019C0000BD10968691858181960904214D110685268091819605A600EE08C4202D90C23036009E008680C18944203D114685268001908604A60596030BDC04694010020E1
:401A0000032370B5CC1C9C430834051C0C2C01D20C2405E0002C03DA0C2300202B6042E08C42F9D3204A1368101C191C002913D00A68121B0DD40B2A02D90A608B181FE08A
:401A40008B4202D15A6802601BE04A685A600B1C17E00B1C4968E9E7144E3368002B03D1281C00F04BF83060281C211C00F046F8031C421CD0D00322C61C964386420AD123
:401A80001C60181C07210B301A1D8843821A0AD05142995007E0311A281C00F02FF8431CBAD0331CECE770BD9401002090010020F8B5061C0C1C151C002904D1111CFFF7AB
:401AC0009FFF041C18E0002A03D1FFF753FF2C1C12E000F025F8A8420ED2301C291CFFF78FFF071E07D0211C2A1CFFF726FF301C211CFFF73FFF3C1C201CF8BD38B5002314
:401B0000064C051C081C2360FEF776FC431C03D12368002B00D02B6038BDC046BC0100200B1F1A68101F002A04DA891804390B68D01804387047000000000000256C645FA5
:401B40000000000000300F40000400400F400004030405060708090A0B0C0E0F101112131415161718191B1C1D1E1F2021222325262728292A2B2E2F30313233343500005F
:401B80004300232D302B2000686C4C006566674546470030313233343536373839414243444546003031323334353637383961626364656600000000F8B5C046F8BC08BCC4
:401BC0009E4670478901000071040000F8B5C046F8BC08BC9E46704761010000F01B0000C800002080000000780000000000000000000000C00100200000E02EC05D00002C
:401C00001800000000366E01040404000000000000000000000000000000000000000000000000000000000000000000801B00000000000000000000000000000000000040
:401C40000000000000000000000000000000000000000000000000000000000000000000000000000000000000000000E40000200000000000000000000000000000000060
:401C80000000000000000000000000000000000000000000000000000000000000000000000000000000000000000000000000000000000000000000000000000000000024
:401CC00000000000000000000000000000000000000000000000000000000000000000000000000000000000000000000000000000000000000000000000000000000000E4
:401D000000000000000000000000000000000000000000000000000000000000000000000000000000000000000000000000000000000000000000000000000000000000A3
:401D40000000000000000000000000000000000000000000000000000000000000000000000000000000000000000000000000000000000000000000000000000000000063
:0200000490303A
:02000000ED9C75
:0200000490402A
:200000000000000000000000000000000000000000000000000000000000000000000000E0
:0200000490501A
:0C000000000204C81193110104D0FF2F6E
:0200000490600A
:0100000001FE
:00000001FF