:400000000010002011000000C5040000C504000008B500F071FAC04638B5164C23688022D20213432360182000F024FB2268124B13402360114A124B1A602022114B1A6058
:40004000103A114B1A6080221206104B1A60002525600F4A0F4B1A600F4A104B1A6009200F4900F0ADFA092000F094FA0D4B1D6038BDC04600010B40FFFFFBFF0600008073
:4000800004010B40080202400C02024008010B4002000080000002401000008040000240850800000C020B4010B572B6002410E01E4863001A195200821891881B195B00B3
:4000C0001A5AC31858880004104300F05DFA0134E4B2012CECD9164A164B1A609922164B1A6099221204154B1A60154B1978022002220A431A70134C22783C218A43283968
:400100000A432270197816220A431A7003220E4B1A600E4A0E4B1A600E4B186031220E4B1A600E4B1860FFF777FF10BDE4270000EEEE00000C0001401000014030500F40C8
:4001400000700F4001700F4000030440A40D00000803044000040440080404401804044010B5064C2378002B07D1054B002B02D0044800E000BF0123237010BD48010020E7
:4001800000000000DC27000008B5084B002B03D00748084900E000BF07480368002B00D108BD064B002BFBD09847F9E700000000DC2700004C010020C80000200000000016
:4001C00000B599B062B600F02FF8752000F05CF812A808A903AA00F033F808A800F0BAF808A800F0D3F808A800F0F8F808A803A900F01AF9059B0193181C01F02DFE021C78
:4002000013A8084901F0E2FE13A800F02FFE08A800F0FCF803A800F03DF9322000F008FADBE7C046E027000008B5022000F07EFD022000F069FD00F0ABFD00F08BFB08BDFC
:4002400070B5051C0C1C161C00F044F8201C00F057F8281C211C00F023F9301C00F070F870BDC04600B583B001AB187059706920191C0222002300F053FC00F0E1FB830754
:40028000FBD5FF2003B000BD10B582B001A9087069200122022300F043FC00F0D1FB8307FBD5692069460122012300F0AFFC00F0C7FBC307FBD500F0C3FB830502D46B468D
:4002C0001C7801E00124644200F0D2FB201C02B010BDC04610B5041C10230370083B43708370073BC3706B200121FFF7BBFF61781920FFF7B7FF21781C20FFF7B3FF10BDF2
:4003000010B5002314E0590041180022CA80191D490041184A80CA80191C08314C00041962809C1DA400225089000A500133DBB2012BE8D9002303704370438010BDC046DF
:40034000002383604360024A0261C260036070470000A04030B583B0051C3B20FFF794FFC4B23C20FFF790FF64B2240240B200196C88001B80B201AB5880002801D100226D
:400380005A8001AB5B882B8103B030BD30B50389002B09D103780133DBB20370052B1CD900230382C38118E000220270C189C2881BB214B21B1BDC0FE3185B108A18D3188B
:4003C0000382448A81890BB20A25425F9B18DA0FD3185B106118CB18838230BD10B50E22835E8269D4181022815ECA1AD10F8A185210A218C2611421425E016A8918D31AA2
:40040000DA0FD3185B10CB18436210BD0389C380038AC381C369836183894381838A4382436A03627047C046F0B5474680B4071C0C1C0D690223C05E400001F02DFD011C25
:40044000281C00F0A5FF011C281C01F01DF9051C206063689846E6680823F85E01F01CFD311C01F07BFB011C281C01F045FA011C404600F08DFFA060FE208005291C01F0DC
:400480006DFB011C301C01F037FA206104BC9046F0BDC0460369C360836843607047C04670B50E1C0025002407E0301CFFF752FF0822B35EED180134E4B23F2CF5D9AD1191
:4004C000758070BDFEE7C04608B5031C084A1068C318084A9A1A802A02DC054A136005E001F040FD0C2303600120404208BDC046CC000020C001002070B50F4E0F4D13E06D
:4005000029686B68AC68002202E001C901C30432A242FAD1E868002202E0002102C304328242FAD11035013E002EE9D101F020FDFFF746FEFEE7C046010000003C290000C8
:4005400008B500230AE0032B03D89A000A49505800E00A4899000A4A885001332F2BF2D9FFF7A2FD0022074B1A608022D205116801230B43136008BD00000000C5040000DB
:4005800000000020C000002008B50A1C002101F015FD08BD1F2318401E3B8340181C014B1860704700E100E01F2318401E3B8340181C014B1860704780E100E001BE70472D
:4005C00038B5041C0D1C1F2802D90020FFF7F6FFA400034B9C4664442068256038BDC0464000002070B5041C0E1E032E02D90020FFF7E4FF1F2C02D90020FFF7DFFF0325FC
:400600002540ED00063500F049FCA408A400074B9C46644423680322AA409343AE40351C1D43256000F03EFC70BDC04600E400E010B5041C06E0084B186800F025FC074B16
:400640009C46644480231B029C42F4D8024B5868604300F019FC10BDD00000200080FFFF08B5034B1B7A584300F00EFC08BDC046D0000020F0B557464E46C0B483B0041C09
:4006800000F00CFC0190E71E2D2F74D83F4B1B78DBB2A34208D33E4B1B78DBB29A463D4B1B78DBB2994631E03B4B1B78DBB2A34208D33A4B1B78DBB29A46394B1B78DBB2EA
:4006C000994623E0374B1B78DBB2A34208D3364B1B78DBB29A46354B1B78DBB2994615E0334B1B78DBB2A34208D3324B1B78DBB29A46314B1B78DBB2994607E02F4B1B7877
:40070000DBB29A462E4B1B78DBB299462D4BDE5D2F2E09D92A2C07D919222B4B1A60052000F0B2FB192503E0274B1D683F231D40AE4206D2234BDA5D234B1A60052000F07E
:40074000A3FB1F4B9C4664442378DBB21F4A13601F4B52461A601F4B4A461A600520FFF77FFFAE420AD9174BDA5D174B1A60052000F08AFB02E00020FFF720FF019800F0D8
:4007800091FB03B00CBC91469A46F0BDC0F1FF0FC1F1FF0FC2F1FF0FC3F1FF0FC4F1FF0FC5F1FF0FC6F1FF0FC7F1FF0FC8F1FF0FC9F1FF0FCAF1FF0FCBF1FF0FCCF1FF0FCD
:4007C000CDF1FF0FF02700002CFF0B4028FF0B401CFF0B4020FF0B40034B1868C0231B02184000D00120704700010B4008B500F055FB044A1368C02109020B43136000F0E1
:4008000051FB08BD00010B4010B500F047FB08490A68084B1A408024E40122430A600A6813408022120213430B6000F03BFB10BD00010B40FF3FFFFF70B5061C00F02EFB85
:40084000041CFFF7C9FF002803D0FFF7DDFF012500E000250848331C0340084A106808490840184310601368012D01D1FFF7BEFF201C00F017FB70BD0404040010020B4090
:40088000FBFBFBFF10B5244B1B685B0715D5234B1B685B070ED5224BD969042001401F4C22688A432260DA698243DA611B69002B00D098470420FFF7BFFF174B1B685B05F9
:4008C00018D5164B1B685B0510D5154BD9698022D2001140114802688A430260D969114A0A40DA615B69002B00D098478020C000FFF7A2FF084B1B685B030CD5074B1B68E8
:400900005B0304D5064B9B69002B00D098478020C002FFF791FF10BD10020B40E000002064010020FFFBFFFF08B50B20FFF732FE08BDC04608B500F01DF808BD08B5044A57
:400940001368802109060B431360FFF7EDFF08BD0000074008B5064B1B78002B04D1FFF7E9FF0122024B1A70FFF7E8FF08BDC0468401002010B51D4A11680C230B43136042
:4009800000241B4B1C601B4A1B4B1A601B4B1C4A13601C4A14601C4A14601C4A13601C4B1C600B20FFF700FE0B200321FFF71AFE0B201849FFF704FE174B1C60174B1C6081
:4009C000174B1C601422FF32164B1A60164B1C60164B1C60043AFF3A154B1A70154B1C80154B1C60154B1C6010BDC0467000074000000740C70800806000074007010080B9
:400A00000003074004030740100307400002074004020740B10E0000C80E0740880E0740480F0740080F0740C80F0740880F074098010020A6010020AC010020A00100206F
:400A400010B50B20FFF7B0FD074B1B889BB21C1C064A1278920601D504241C430B20FFF799FD201C10BDC046A60100209801002010B50B20FFF798FD044B1C88A4B200226E
:400A80001A800B20FFF786FD201C10BDA601002010B51F4B1C6800F041F90028FBD0002000F04EF91B4A13680F218B4313601A4A13685B005B081360A3060FD5002000F003
:400AC0003FF90320FFF7CCFD012000F039F900F043F90028FBD00320FFF7C2FD002000F02FF90320FFF7BCFD01220C4B1A600A4A1368802109060B43136006490B680F2271
:400B00009343013A13430B60012000F019F910BD640007400C0001400000074068000740F0B583B001900C1C171C1D1C002919D0284B1B78102B0AD10B20FFF735FD264B16
:400B40001B68DB0701D508260FE000260DE0214B1B78602B08D1214A138808218B431380002602E0042600E00426002E2BD12822184B1A7000231A4A13601A4A13601A4B44
:400B80001F601A4B1C60EAB2194B1A70019B5C00FF231C40114A138802218B431380154A154B1A604023154A1360154A1360EB0704D5FFF76DFF134B1C6004E0114B1C6058
:400BC0000222114B1A600B20FFF7E4FC301C03B0F0BDC0469801002064000740A60100209C010020A0010020A8010020B0010020A401002017030000000F0740800F0740FA
:400C0000880F07404002074068000740F0B583B001900C1C171C1D1C002919D02D4B1B78102B0AD10B20FFF7BFFC2B4B1B68DB0701D508260FE000260DE0264B1B78602B22
:400C400008D1264A138808218B431380002602E0042600E00426002E35D129221D4B1A7000221F4B1A601F4A17601F4B1C60EBB21E490B70019B5C00FF231C400120044330
:400C800016490B8883430B8019491A4B19601368072B03D80422184B1A6008E0174A1368802149000B4313600822134B1A60EB0704D5FFF7EDFE124B1C6004E0104B1C6075
:400CC0000222104B1A600B20FFF764FC301C03B0F0BDC0469801002064000740A6010020AC010020B8010020B4010020A401002017030000000F0740C80F07406000074028
:400D00004002074068000740034A136838218B43C00018431060704708030440024B18688007C00F7047C04604030440034A136807218B43184310607047C046080304403B
:400D4000031C04490868FE2202400120184010430860704700030440024B1868012318407047C0460403044008B500F06DF808BD08B500F01DF808BD08B5044A136880212D
:400D800009060B431360FFF7EFFF08BD0000064008B5064B1B78002B04D1FFF7E9FF0122024B1A70FFF7E8FF08BDC0468C01002010B5134A134B1A600023134A1360012197
:400DC000124A1160124A13480260072412480460124803601248016012490A60124A1360124A1360124A1360124A1360124A1360124A1360124A13601268124B1A8010BD00
:400E00000B00000200000640400006404800064007000080000306400403064010030640440006400002064004020640880E0640C80E0640480F0640080F0640C80F0640A8
:400E4000880F06408E01002005490B68F0229343603A13430B60034B1A88034B1A607047100001408E010020880F064038B5051C002402E000F0ECF90134285D0028F9D101
:400E800038BDC046000000000230800804D0C0460138FDD1C046C046C0467047EFF3108072B6704780F310887047C046C046C04610B5C04B1B68002B00D09847BE4B1B68F5
:400EC000DB0702D50022BD4B1A60BD4B1B789B0628D5BC4B1B68DB0507D5BB4A1188C0239B000B431380012300E00023B54A1268D20706D5B44A118890239B000B431380FF
:400F00000123002B0FD0AE4A1278D20701D5012200E00222AC49088802430A800021A84A117000E00023A64A1278920600D414E1A44A1268D20611D51022A44B1A60A04BB9
:400F40001B78DB0701D5012300E002239E4A11880B43138010229A4B1A7029E1984A1278120720D5974A126892070AD50222974B1A60954A118888239B000B431380012360
:400F800011E08F4A1278D20703D525218C4A117009E024218A4A11708D4A1268002A02D014398C4A1160864A1278520700D4ABE0834A1278D20749D5874A1268120727D56B
:400FC000864A1268864909680F240C40854909686418141B082C09D8002C16D1824A1168824B0B401360012308340EE008240CE07C4A11687E48006841187E480068C0B23A
:401000000870116801311160013C002CF0D119E0714A1268520715D5724A116874480068411874480068C0B2087011680131116011686A4A1268914203D204216E4A116008
:4010400000E001236D496E4A11605DE05D4A1268920726D502225D4B1A606A4A13680F211940136880221202134000D00123CB18654A1168CB1A13601268644B1A60524A83
:40108000118884239B000B431380614B1A68802149020A431A6019685E4A0A401A60012332E05D4A1268D20612D424E0564A1168474A1268914211D2534A11685748006896
:4010C00041180978C9B2564801601168013111604C4A12680F210A40082AE7D14A4A11683B4A1268914202D140213A4A11604D494D4A116008E0484A1268520604D5424BB4
:401100001A68424B1A600123002B51D0364A1168364B0B4013600023444A13602D4A1360434B1B789B070ED5254B1B78DB0701D5092300E00A23244A11880B43138060226C
:401140001F4B1A7034E03B4B1B689B0601D5182200E01022284B1A602AE0194B1B78DB0626D4354A13685B005B0813601021144B19701D4B18683149014019601868304979
:4011800001401960002329490B6012490B601B49254B196023491A4B19602A492A4B19602A490A4B19601368802109060B43136010BDC046880100208C0E0740880E074050
:4011C000980100200C0F0740A6010020000F0740A8010020880F0740CC0F0740B801002008030740AC01002060000740FFFEFFFFB40100204003074068000740ED0F00004A
:40120000C00F0740080207409C010020A001002004020740FFFFFEFF8C0F0740B001002040020740F3070000800F0740C80F0740A40100206400074000000740FF5FFFFF44
:40124000FFFCFFFFFF0F0000400F074017030000044B1B680F221340082BF9D0024B18607047C0460802064040020640002243088B4274D303098B425FD3030A8B4244D38E
:40128000030B8B4228D3030C8B420DD3FF22090212BA030C8B4202D31212090265D0030B8B4219D300E0090AC30B8B4201D3CB03C01A5241830B8B4201D38B03C01A524101
:4012C000430B8B4201D34B03C01A5241030B8B4201D30B03C01A5241C30A8B4201D3CB02C01A5241830A8B4201D38B02C01A5241430A8B4201D34B02C01A5241030A8B42C8
:4013000001D30B02C01A5241CDD2C3098B4201D3CB01C01A524183098B4201D38B01C01A524143098B4201D34B01C01A524103098B4201D30B01C01A5241C3088B4201D3BC
:40134000CB00C01A524183088B4201D38B00C01A524143088B4201D34B00C01A5241411A00D20146524110467047FFE701B5002000F00CF802BDC0460029F7D003B5FFF746
:4013800075FF0EBC4243891A1847C0467047C046F8B54A00430244004E02C50F240E281C9B09120EC90FB7098D4240D0A01A002800DC84E0002A1CD1002F5CD15A0704D086
:4013C0000F221A40042A00D004338022D2041A40281C002A24D00134FF2C00D17BE09B015B0AE4B25B02E4055B0A2343C0071843F8BDFF2CE2D08022D204174301261B28D5
:4014000008DC391C20223E1CC140101A8640771EBE410E439B1B5A0133D4281C5A07CFD1DB08FF2C1ED05B025B0AE4B2DAE7A11A002957DD002A3AD0FF2CBFD08022D20411
:40144000174301261B2972DD9B195A01E5D50134FF2C00D187E001218A4A194013405B080B43ABE7002B36D08022D20313435B025B0AFF24B6E7013800283FD1DB1B5A01D0
:40148000CBD59B019E09301C00F04EFD05388640844223DC001B1F24321C431C201ADA408640131C741EA6410024334386E7002F00D183E70139002950D1DB19C5E7002870
:4014C00020D1621CD2B2012A5EDDDE1B720128D5FE1A0D1CD7E7FF24002383E7694B241A33406BE7002958D1621CD1B201293CDDFF2A37D0FB185B08141C5FE7FF2C00D017
:401500007CE75BE7002C1ED0FF2A23D08024E404404223431B285BDD0123FB1A141C0D1CADE7002EAFD100230020002478E73A1CCA40944620223E1C511A8E406246771EFB
:40154000BE41164380E7002B3ED0C0430028E4D0FF2ADFD13B1CFF240D1C2FE7FF2C00D06FE72BE7FF2400235AE7002C5AD1002B7FD0002F00D121E7DB195A0100D44CE7E9
:40158000404A0134134019E7002C15D1002B2FD1002F5DD03B1C0D1C10E7002C21D1002B53D0C943002904D0FF2A4BD01B2957DD0123DB19141C48E7002B22D1002F4AD0FA
:4015C0003B1C0D1CFF24F9E63B1C141C0D1CF5E61D1C2024C540201A8340581E83412B439BE7FF2A2ED08024E40449422343DDE7002F00D1E2E6DA1B50013CD5FB1A0D1C70
:40160000DCE6FF24002F00D1D8E68022DB08D203134204D0FE08164201D1331C0D1CDB00FF24CBE6002B0DD0FF24002F00D1C5E68022DB08D2031342F1D0FE081642EED1CA
:40164000331CECE73B1CFF24B8E63B1C141CB5E6231C0020E4E6802300209B04FF24DFE61E1C2024CE40611A8B40591E8B4133439FE73B1CA2E6131E00D0CEE600230020B3
:40168000CEE6C046FFFFFFFBF0B556464D465F464446F0B443024500C70F83B08A465C0A2E0EB94641D0FF2E26D080231B042343DC00002398469B467F3E53465B025D0A99
:4016C00053465A00DB0F120E9A4639D0FF2A33D080231B042B43DD0000237F3A5146B21A46467940081C01921E430F2E00D976E07E4AB6009659B746002C30D10823984623
:40170000063B9B46D9E780230021DB03FF245B02E4055B0AC90723430B43181C03B03CBC90469946A246AB46F0BD002C28D104239846033B9B46C0E7002D1FD1022302E0A5
:40174000002D11D10123B21A50464646784001921E430F2E27D86649B60089598F460C239846093B9B46A8E7281C00F0DDFB7622431F52429D40121A0023AFE70323ADE76D
:40178000201C00F0D1FB431F9C4076235B421E1A002398469B4690E70025D1469B465B464846022B6FD10121FF2401400023AEE77E23019A5B429B1A1B2B6DDD01214B4664
:4017C000194000240023A2E78023DB031C4249D18023DB0323435B025B0A391C96E763016D01AB4237D389461A2001215B1B01241E1C49005B00002E01DBAB4201D35B1B9E
:40180000214301380028F3D1581E83410B431D1C019C7F34002CCBDD6B0704D00F232B40042B00D004352B0104D5019A314B8032141C1D40FE2C07DD4B460121FF24194087
:40184000002364E7251CAAE701214A46AB015B0AE4B211405BE7019A8946013A01921B200021C4E71D4207D023435B025B0A391C4CE700256302ABD58023DB032B435B02C1
:401880005B0A514642E7032B25D0012BC0D101210024014000233AE7291CD9402B1C019A9E3293405D1EAB410B435A0704D00F221A40042A00D004335A0105D54B460121E3
:4018C00001241940002322E701214A469B015B0A114000241BE7802301214A46DB032B435B020A405B0A111C10E7C0462028000060280000FFFFFFF7F0B55F4656464D4600
:401900004446F0B445024600C40F83B00F1C6D0A360EA34645D0FF2E25D080231B041D4300239A46ED007F3E01937B025B0A98467800FB0F000E994640D0FF2838D080236C
:4019400042461B041343DB00984600237F384A46019F30186240411C1F430F2F69D87D4EBF00F659B746002D45D108230193063B9A46DAE793465346022B2FD15B46012460
:4019800000251C40FF236D02DB056D0AE4071D432543281C03B03CBC90469946A246AB46F0BD002D2CD104230193033B9A46BCE743465A4253410322D31AC8E74246012315
:4019C000002AC4D0404600F0AFFA4246431F9A4076235B42181A90460023B8E7032B00D1ADE0012B00D08CE05B4654461C40E4B200230025C7E70C230193093B9A4694E7CD
:401A0000281C00F091FA7626431F9D4000237642361A01939A4688E780250024ED03FF23B1E74546CB469A46A5E7454693469A46A1E743462C041B0C9C46230C4446260412
:401A40001C1C360C2F0C7443351C66467D4373437743EB18260C9E19B54203D980235B029C46674424043304240C1B199D016C1EA5419B0E360C2B43BD19AD011D432B0147
:401A800004D5012368081D400543081C031C7F33002B2CDD690704D00F212940042900D00435290103D52C4B1D40031C8033FE2B17DD0124FF231440002564E78020C003A5
:401AC000054209D04346034206D1454605436D026D0A4C46FF2356E705436D026D0AFF2351E70124AD016D0ADBB214404BE77E235B421B1A1B2B07DD012400231440002534
:401B000041E7081C5A46C1E79E30291C8540D940681E85410D436B0704D00F232B40042B00D004356B0104D5012401231440002529E70124AD016D0A1440002323E78023E4
:401B4000DB031D4301245B466D0223401C1C6D0AFF2318E7A0280000FFFFFFF7F8B54A00430244004D02C00F240E061C9B09120EC90FAD09FF2A00D175E0012779408842C5
:401B800050D0A01A002800DC8FE0002A1ED1002D00D075E05A0704D00F221A40042A00D0043380220120D2041A403040002A32D00134FF2C00D184E09B015B0AE4B25B0260
:401BC000E4055B0A2343C0071843F8BDFF2CE1D08022D20415431B287ADD01255B1B5A015DD59B019F09381C00F09EF905388740844269DC001B1F243A1C431C201ADA4056
:401C00008740131C7C1EA74100243B43C2E7131E45D100230020DB08FF2C28D05B025B0AE4B2CCE7A11A00295BDD002A2ED0FF2CB0D08022D20415431B2974DC2F1C202266
:401C4000CF40511A8D40691E8D413D435B195A0125D50134FF2C74D001217E4A194013405B080B4396E7002D00D088E785E7002B27D08022D20313435B025B0AFF249EE7E6
:401C800001380028AAD0FF2CA5D183E7002D00D180E701390029D9D0FF2CCDD17AE75A0700D079E701203040B5E7002825D1621CD2B2012A55DD5F1B7A012DD5EF1A0E1C3E
:401CC00091E7FF2400237AE7624B241A3B4061E7291C2022C140101A8540681E85410D437CE7002946D1621CD1B201292BDDFF2A26D0EB185B08141C4CE7002C15D0FF2A0C
:401D00001AD08024E404404223431B284DDD0123EB1A141C0E1C62E7002F00D063E700230020002477E7012590E7002B39D0C0430028EDD0FF2AE8D12B1CFF240E1C29E7BF
:401D4000FF24002367E7002C5AD1002B7FD0002D00D11FE75B195A01A1D53E4A0134134018E7002C15D1002B2FD1002D5ED02B1C0E1C0FE7002C21D1002B54D0C943002905
:401D800004D0FF2A4CD01B2958DD01235B19141C5DE7002B23D1002D4BD02B1C0E1CFF24F8E62B1C141C0E1CF4E61E1C2024C640201A8340581E83413343A9E7FF2A2FD048
:401DC0008024E40449422343DDE7002D00D1E1E65A1B500100D41AE7EB1A0E1CDAE6FF24002D00D1D6E68022DB08D203134204D0ED08154201D12B1C0E1CDB00FF24C9E6B7
:401E0000002B0DD0FF24002D00D1C3E68022DB08D2031342F1D0ED081542EED12B1CECE72B1CFF24B6E62B1C141CB3E6231C0020F1E6802300209B04FF24ECE61F1C202419
:401E4000CF40611A8B40591E8B413B439EE72B1CA0E6C046FFFFFFFB4202510A4200C30F120E00207E2A0DDD9D2A0CDC802000040143952A0ADC9620821AD1400A1C584218
:401E80004240D0187047034A9818FBE7963A91400A1CF4E7FFFFFF7F70B5041E39D0C50F00D04442201C00F03FF89E23261C1B1A962B07DC082801DD083884406402640A65
:401EC000D8B21EE0992B0ADD0522211C121AD1400A1C011C1B318E40711E8E411643052801DD421F96400F4C3440720704D00F221640042E00D0043462010ED4A401640A83
:401F0000D8B26402C005640AED0704432C43201C70BD002500200024F3E7024B1C409F231B1AEBE7FFFFFFFB1C2101231B04984201D3000C10391B0A984201D3000A08391D
:401F40001B09984201D30009043902A2105C40187047C04604030202010101010000000000000000014B18687047C046440100200E4B70B500251E1C0D4CE41AA410A54258
:401F800004D0AB00F35898470135F8E700F0C4FC084B00251E1C084CE41AA410A54204D0AB00F35898470135F8E770BD2429000024290000242900002C290000031C821834
:401FC000934202D019700133FAE770470EB410B59DB002A9029008610B48822488604861012040421FABC881084804CBA400006801938C8100F06CF80023029A13701DB0FC
:4020000010BC08BC03B01847FFFFFF7F44010020F0B58E6885B0071C0C1C03920193B34245D390238A89DB001A423DD003250969236801985B1A029363695D43EB0F5D191E
:40204000029B6D1001331B189D4200D21D1C381C53050FD5291C00F025FB061E13D0029A216900F0BCFAA289184B134080221343A38111E02A1C00F06DFB061E0CD1381C5C
:40208000216900F0C9FA0C23402201203B60A38940421343A38117E0029B2661F61826606561019EED1AA560019BB34200D2019E321C2068039900F09BFA0020A3689B1B74
:4020C000A36023689E19266005B0F0BD7FFBFFFFF0B59FB0029005938B890E1C171C1B0610D50B69002B0DD1402100F0DBFA30603061002804D10C23029A01381360D0E0BE
:4021000040237361002306AD6B6120336B761033AB763C1C2378002B03D1E31B049312D003E0252BF9D00134F4E7049B0298311C3A1CFFF76DFF431C00D1ACE06A69049B4D
:40214000944663446B612378002B00D1A3E00122002352426A6002A95432521801342B60EB60AB601370AB654F4F2178381C052200F02AFA002808D0C01B01278740381C2C
:402180002B68013418432860EEE72B68DA0604D55322202102A8121811701A0704D553222B2102A81218117022782A2A01D0099B0EE0059A111D12680591002A01DB099269
:4021C00004E05242EA60022213432B60013409E02278303A092A04D80A214B4301349B18F6E7099323782E2B18D163782A2B09D1059B02341A1D1B680592002B0DDA012389
:402200005B420AE0002301342278303A092A04D80A214B4301349B18F6E70793234F2178381C032200F0D0F9002807D0C01B40278740381C2B6801341843286021781C4853
:402240000622671C297600F0BFF9002812D0194B002B06D10722059B073393430833059314E005AB00930298291C321C124B00E000BF07E005AB00930298291C321C0E4B40
:4022800000F08AF80390039B013304D06B69039A9B186B613DE7B3890B985B0601D5012040421FB0F0BDC046E2280000E8280000EC2800000000000011200000F7B5171CE6
:4022C00001930A698B6800900C1C934200DA131C221C3B6043321278002A01D001333B6023689B0602D53B6802333B60062523681D401ED0231C43331B785A1E9341226817
:4023000092061CD53020E1184031C870211C5A1C45310978A21840320233D1700FE0221C0123009801991932089EB047431C0ED00135E3683A689B1A9D42F0DBDAE7221CAD
:40234000009801994332089DA847431C02D10120404220E006232068E1683A6803400025042B03D18D1AEB43DB171D40A3682269934201DD9B1AED180027AF420ADA221CE5
:402380000123009801991A32089EB047431CDED00137F2E70020FEBDF0B58BB006920A1C43320793059004920A7E0C1C109B6E2A00D1A8E011D8632A22D009D8002A00D17D
:4023C000B2E0582A00D0C2E045310A707C4A4FE0642A1DD0692A1BD0B9E0732A00D1A7E009D86F2A29D0702A00D0B0E0202209680A43226037E0752A1FD0782A33D0A6E02C
:402400000E1C1A684236111D196013683370A1E021681A68080606D4490604D5111D19600023D55E02E0111D19601568002D3BDA2D23049A6D42137036E021681A68080683
:4024400006D4490604D51568111D1960ADB202E0111D196015685A4B227E03930A276F2A1DD108271BE0221C782145321170554A19680392081D226818600D68100602D408
:40248000500600D5ADB2D30702D520231A4322601027002D03D1202322689A432260231C002243331A7002E00A27454B03936368A360002B03DB0422216891432160002DB9
:4024C00002D1049E002B0ED0049E281C391CFEF753FF039B013E5B5C281C3370391CFEF7C5FE051EF1D1082F09D12368DB0706D563682269934202DC3023013E3370049B39
:402500009B1B23612BE009681A68080607D4490605D5111D19601368A28A1A8004E0111D1960136862691A600023049E236116E01A68111D196016680021301C626800F011
:4025400043F8002801D0801B6060636803E0261C42363270012323610023049A1370079B05980093211C069B09AAFFF7A7FE431C02D10120404221E0236905980699321CEC
:40258000079DA847431CF4D023689B0705D4099BE068984212DA181C10E00025E368099A9B1A9D42F3DA221C0123059806991932079EB047431CDCD00135EFE70BB0F0BD11
:4025C000F328000004290000C9B28218904204D003788B4202D00130F8E700207047002310B5934203D0CC5CC4540133F9E710BD10B5814208D28B18984205D29B1A013A80
:4026000009D3995C8154FAE70023934203D0CC5CC4540133F9E710BD30B500293ED004390B68002B00DAC9181D4A1368141C002B02D14B60116031E099420DD208680A18EC
:402640009A4203D11368C3180B6053684B60216024E08A4203D8131C5A68002AF9D11D685C198C420BD10968691858181960904214D110685268091819605A600EE08C42FA
:4026800002D90C23036009E008680C18944203D114685268001908604A60596030BDC04694010020032370B5CC1C9C430834051C0C2C01D20C2405E0002C03DA0C230020DD
:4026C0002B6042E08C42F9D3204A1368101C191C002913D00A68121B0DD40B2A02D90A608B181FE08B4202D15A6802601BE04A685A600B1C17E00B1C4968E9E7144E3368B7
:40270000002B03D1281C00F04BF83060281C211C00F046F8031C421CD0D00322C61C964386420AD11C60181C07210B301A1D8843821A0AD05142995007E0311A281C00F0D7
:402740002FF8431CBAD0331CECE770BD9401002090010020F8B5061C0C1C151C002904D1111CFFF79FFF041C18E0002A03D1FFF753FF2C1C12E000F025F8A8420ED2301CF2
:40278000291CFFF78FFF071E07D0211C2A1CFFF726FF301C211CFFF73FFF3C1C201CF8BD38B50023064C051C081C2360FDF78CFE431C03D12368002B00D02B6038BDC046C9
:4027C000BC0100200B1F1A68101F002A04DA891804390B68D0180438704700000000000025645F0000300F40000400400F400004030405060708090A0B0C0E0F1011121341
:402800001415161718191B1C1D1E1F2021222325262728292A2B2E2F3031323334350000DE170000A6170000C21700009A170000C217000006170000C21700009A1700009A
:40284000A6170000A6170000061700009A170000441800004418000044180000C8170000A6170000A61700008E180000981700008E180000061700008E1800009817000036
:40288000A6170000A6170000061700009817000044180000441800004418000072180000321A00002A1A00002A1A0000221A00007419000074190000181A0000221A00009C
:4028C00074190000181A000074190000221A0000761900007619000076190000BC1A00004300232D302B2000686C4C006566674546470030313233343536373839414243C8
:40290000444546003031323334353637383961626364656600000000F8B5C046F8BC08BC9E4670478901000041050000F8B5C046F8BC08BC9E46704761010000502900002F
:40294000C800002080000000780000000000000000000000C00100200000E02EC05D00001800000000366E01040404000000000000000000000000000000000000000000A2
:40298000000000000000000000000000E02800000000000000000000000000000000000000000000000000000000000000000000000000000000000000000000000000000F
:4029C000000000000000000000000000E4000020000000000000000000000000000000000000000000000000000000000000000000000000000000000000000000000000D3
:402A00000000000000000000000000000000000000000000000000000000000000000000000000000000000000000000000000000000000000000000000000000000000096
:402A40000000000000000000000000000000000000000000000000000000000000000000000000000000000000000000000000000000000000000000000000000000000056
:402A80000000000000000000000000000000000000000000000000000000000000000000000000000000000000000000000000000000000000000000000000000000000016
:402AC00000000000000000000000000000000000000000000000000000000000000000000000000000000000000000000000000000000000000000000000000000000000D6
:0200000490303A
:0200000066D2C6
:0200000490402A
:200000000000000000000000000000000000000000000000000000000000000000000000E0
:0200000490501A
:0C000000000204C81193110104D57865BA
:0200000490600A
:0100000001FE
:00000001FF